{
  "_format": "hh-sol-artifact-1",
  "contractName": "Calend3",
  "sourceName": "contracts/Calend3.sol",
  "abi": [
    {
      "inputs": [],
      "stateMutability": "nonpayable",
      "type": "constructor"
    },
    {
      "inputs": [
        {
          "internalType": "string",
          "name": "_title",
          "type": "string"
        },
        {
          "internalType": "uint256",
          "name": "_startTime",
          "type": "uint256"
        },
        {
          "internalType": "uint256",
          "name": "_endTime",
          "type": "uint256"
        }
      ],
      "name": "createAppointment",
      "outputs": [],
      "stateMutability": "payable",
      "type": "function"
    },
    {
      "inputs": [],
      "name": "getAppointmentRate",
      "outputs": [
        {
          "internalType": "uint256",
          "name": "",
          "type": "uint256"
        }
      ],
      "stateMutability": "view",
      "type": "function"
    },
    {
      "inputs": [],
      "name": "getAppointments",
      "outputs": [
        {
          "components": [
            {
              "internalType": "string",
              "name": "title",
              "type": "string"
            },
            {
              "internalType": "address",
              "name": "attendee",
              "type": "address"
            },
            {
              "internalType": "uint256",
              "name": "startTime",
              "type": "uint256"
            },
            {
              "internalType": "uint256",
              "name": "endTime",
              "type": "uint256"
            },
            {
              "internalType": "uint256",
              "name": "amountPaid",
              "type": "uint256"
            }
          ],
          "internalType": "struct Calend3.Appointment[]",
          "name": "",
          "type": "tuple[]"
        }
      ],
      "stateMutability": "view",
      "type": "function"
    },
    {
      "inputs": [],
      "name": "owner",
      "outputs": [
        {
          "internalType": "address payable",
          "name": "",
          "type": "address"
        }
      ],
      "stateMutability": "view",
      "type": "function"
    },
    {
      "inputs": [
        {
          "internalType": "uint256",
          "name": "_appointmentRate",
          "type": "uint256"
        }
      ],
      "name": "setAppointmentRate",
      "outputs": [],
      "stateMutability": "nonpayable",
      "type": "function"
    }
  ],
  "bytecode": "0x608060405234801561001057600080fd5b5033600160006101000a81548173ffffffffffffffffffffffffffffffffffffffff021916908373ffffffffffffffffffffffffffffffffffffffff160217905550610e94806100616000396000f3fe60806040526004361061004a5760003560e01c80631bec3f4e1461004f57806328c17d6a1461007857806359c35bdf146100a35780638da5cb5b146100bf57806396b80d08146100ea575b600080fd5b34801561005b57600080fd5b50610076600480360381019061007191906106cc565b610115565b005b34801561008457600080fd5b5061008d6101af565b60405161009a9190610708565b60405180910390f35b6100bd60048036038101906100b89190610869565b6101b8565b005b3480156100cb57600080fd5b506100d461040f565b6040516100e19190610919565b60405180910390f35b3480156100f657600080fd5b506100ff610435565b60405161010c9190610b24565b60405180910390f35b600160009054906101000a900473ffffffffffffffffffffffffffffffffffffffff1673ffffffffffffffffffffffffffffffffffffffff163373ffffffffffffffffffffffffffffffffffffffff16146101a5576040517f08c379a000000000000000000000000000000000000000000000000000000000815260040161019c90610ba3565b60405180910390fd5b8060008190555050565b60008054905090565b6101c061059a565b8381600001819052508281604001818152505081816060018181525050600054603c84846101ee9190610bf2565b6101f89190610c55565b6102029190610c86565b81608001818152505033816020019073ffffffffffffffffffffffffffffffffffffffff16908173ffffffffffffffffffffffffffffffffffffffff1681525050806080015134101561028a576040517f08c379a000000000000000000000000000000000000000000000000000000000815260040161028190610d2c565b60405180910390fd5b6000600160009054906101000a900473ffffffffffffffffffffffffffffffffffffffff1673ffffffffffffffffffffffffffffffffffffffff16346040516102d290610d7d565b60006040518083038185875af1925050503d806000811461030f576040519150601f19603f3d011682016040523d82523d6000602084013e610314565b606091505b5050905080610358576040517f08c379a000000000000000000000000000000000000000000000000000000000815260040161034f90610dde565b60405180910390fd5b600282908060018154018082558091505060019003906000526020600020906005020160009091909190915060008201518160000190805190602001906103a09291906105df565b5060208201518160010160006101000a81548173ffffffffffffffffffffffffffffffffffffffff021916908373ffffffffffffffffffffffffffffffffffffffff16021790555060408201518160020155606082015181600301556080820151816004015550505050505050565b600160009054906101000a900473ffffffffffffffffffffffffffffffffffffffff1681565b60606002805480602002602001604051908101604052809291908181526020016000905b8282101561059157838290600052602060002090600502016040518060a001604052908160008201805461048c90610e2d565b80601f01602080910402602001604051908101604052809291908181526020018280546104b890610e2d565b80156105055780601f106104da57610100808354040283529160200191610505565b820191906000526020600020905b8154815290600101906020018083116104e857829003601f168201915b505050505081526020016001820160009054906101000a900473ffffffffffffffffffffffffffffffffffffffff1673ffffffffffffffffffffffffffffffffffffffff1673ffffffffffffffffffffffffffffffffffffffff168152602001600282015481526020016003820154815260200160048201548152505081526020019060010190610459565b50505050905090565b6040518060a0016040528060608152602001600073ffffffffffffffffffffffffffffffffffffffff1681526020016000815260200160008152602001600081525090565b8280546105eb90610e2d565b90600052602060002090601f01602090048101928261060d5760008555610654565b82601f1061062657805160ff1916838001178555610654565b82800160010185558215610654579182015b82811115610653578251825591602001919060010190610638565b5b5090506106619190610665565b5090565b5b8082111561067e576000816000905550600101610666565b5090565b6000604051905090565b600080fd5b600080fd5b6000819050919050565b6106a981610696565b81146106b457600080fd5b50565b6000813590506106c6816106a0565b92915050565b6000602082840312156106e2576106e161068c565b5b60006106f0848285016106b7565b91505092915050565b61070281610696565b82525050565b600060208201905061071d60008301846106f9565b92915050565b600080fd5b600080fd5b6000601f19601f8301169050919050565b7f4e487b7100000000000000000000000000000000000000000000000000000000600052604160045260246000fd5b6107768261072d565b810181811067ffffffffffffffff821117156107955761079461073e565b5b80604052505050565b60006107a8610682565b90506107b4828261076d565b919050565b600067ffffffffffffffff8211156107d4576107d361073e565b5b6107dd8261072d565b9050602081019050919050565b82818337600083830152505050565b600061080c610807846107b9565b61079e565b90508281526020810184848401111561082857610827610728565b5b6108338482856107ea565b509392505050565b600082601f8301126108505761084f610723565b5b81356108608482602086016107f9565b91505092915050565b6000806000606084860312156108825761088161068c565b5b600084013567ffffffffffffffff8111156108a05761089f610691565b5b6108ac8682870161083b565b93505060206108bd868287016106b7565b92505060406108ce868287016106b7565b9150509250925092565b600073ffffffffffffffffffffffffffffffffffffffff82169050919050565b6000610903826108d8565b9050919050565b610913816108f8565b82525050565b600060208201905061092e600083018461090a565b92915050565b600081519050919050565b600082825260208201905092915050565b6000819050602082019050919050565b600081519050919050565b600082825260208201905092915050565b60005b8381101561099a57808201518184015260208101905061097f565b838111156109a9576000848401525b50505050565b60006109ba82610960565b6109c4818561096b565b93506109d481856020860161097c565b6109dd8161072d565b840191505092915050565b60006109f3826108d8565b9050919050565b610a03816109e8565b82525050565b610a1281610696565b82525050565b600060a0830160008301518482036000860152610a3582826109af565b9150506020830151610a4a60208601826109fa565b506040830151610a5d6040860182610a09565b506060830151610a706060860182610a09565b506080830151610a836080860182610a09565b508091505092915050565b6000610a9a8383610a18565b905092915050565b6000602082019050919050565b6000610aba82610934565b610ac4818561093f565b935083602082028501610ad685610950565b8060005b85811015610b125784840389528151610af38582610a8e565b9450610afe83610aa2565b925060208a01995050600181019050610ada565b50829750879550505050505092915050565b60006020820190508181036000830152610b3e8184610aaf565b905092915050565b600082825260208201905092915050565b7f4f6e6c7920746865206f776e65722063616e2073657420746865207261746500600082015250565b6000610b8d601f83610b46565b9150610b9882610b57565b602082019050919050565b60006020820190508181036000830152610bbc81610b80565b9050919050565b7f4e487b7100000000000000000000000000000000000000000000000000000000600052601160045260246000fd5b6000610bfd82610696565b9150610c0883610696565b925082821015610c1b57610c1a610bc3565b5b828203905092915050565b7f4e487b7100000000000000000000000000000000000000000000000000000000600052601260045260246000fd5b6000610c6082610696565b9150610c6b83610696565b925082610c7b57610c7a610c26565b5b828204905092915050565b6000610c9182610696565b9150610c9c83610696565b9250817fffffffffffffffffffffffffffffffffffffffffffffffffffffffffffffffff0483118215151615610cd557610cd4610bc3565b5b828202905092915050565b7f57652072657175697265206d6f72652065746865720000000000000000000000600082015250565b6000610d16601583610b46565b9150610d2182610ce0565b602082019050919050565b60006020820190508181036000830152610d4581610d09565b9050919050565b600081905092915050565b50565b6000610d67600083610d4c565b9150610d7282610d57565b600082019050919050565b6000610d8882610d5a565b9150819050919050565b7f4661696c656420746f2073656e64204574686572000000000000000000000000600082015250565b6000610dc8601483610b46565b9150610dd382610d92565b602082019050919050565b60006020820190508181036000830152610df781610dbb565b9050919050565b7f4e487b7100000000000000000000000000000000000000000000000000000000600052602260045260246000fd5b60006002820490506001821680610e4557607f821691505b602082108103610e5857610e57610dfe565b5b5091905056fea2646970667358221220aa41bb1899083ae50956bf763b39ea0f4721002b126c1d1e8b2d5824af5f67c464736f6c634300080e0033",
  "linkReferences": {},
  "deployedLinkReferences": {}
}